:100000000A128A11022F00308A000408840A82072B
:1000100000344C34593443344134203453344F3455
:06002000463454340034A4
:100E040083010A128A11CE2FF00070088312031393
:100E140093000C2F8C1D0F2F102F0C2F112F080057
:100E240002300A128A1170270A128A1128300A1213
:100E34008A1170270A128A110C300A128A1170273B
:100E44000A128A110800F400382F740884000A1268
:100E54008A1103200A128A110A128A119F270A1280
:100E64008A110130F3007308F407382F74088400E2
:100E74000A128A1103200A128A110038031D432F13
:100E8400442F272F452F0800F300622F7308840096
:100E94000A128A1103200A128A110A128A110627D9
:100EA4000A128A110130F1007108F3076230F2006E
:100EB4006530F100F10B5C2FF20B5C2F612F622F78
:100EC400730884000A128A1103200A128A11003856
:100ED400031D6D2F6E2F482F6F2F0800F20072082C
:100EE400F039831203138800081188152130F100AA
:100EF4007630F000F00B7C2FF10B7C2F6400831212
:100F0400031388117208F00003300310F00DFF3E44
:100F1400031D872F0310700DF03988000811881500
:100F24002130F1007630F000F00B962FF10B962F64
:100F340064008312031388110800F2007208F03968
:100F4400831203138800081588152130F1007630C8
:100F5400F000F00BAB2FF10BAB2F640083120313E3
:100F640088117208F00003300310F00DFF3E031DDA
:100F7400B62F0310700DF03988000815881521303C
:100F8400F1007630F000F00BC52FF10BC52F640093
:100F94008312031388110800831603138801831234
:100FA400031388011030831603138700831203137D
:100FB40087010A128A1112270A128A1180308316B5
:100FC40003139400203083120313940080300A1218
:100FD4008A1170270A128A1101300A128A112527F0
:100FE4000A128A11F52F01300A128A1146270A12B1
:0C0FF4008A11F52FF52F0A128A1100282F
:02400E003A3F37
:00000001FF
